{
  "abi": [
    {
      "inputs": [
        {
          "internalType": "bytes32",
          "name": "_txHash",
          "type": "bytes32"
        }
      ],
      "name": "checkElectionSuccess",
      "outputs": [
        {
          "internalType": "bool",
          "name": "",
          "type": "bool"
        }
      ],
      "stateMutability": "view",
      "type": "function"
    },
    {
      "inputs": [
        {
          "internalType": "string",
          "name": "_name",
          "type": "string"
        },
        {
          "internalType": "uint32",
          "name": "_quorum",
          "type": "uint32"
        },
        {
          "internalType": "bytes32",
          "name": "_id",
          "type": "bytes32"
        },
        {
          "internalType": "bytes32",
          "name": "_txHash",
          "type": "bytes32"
        },
        {
          "internalType": "bytes32",
          "name": "_merkleRoot",
          "type": "bytes32"
        }
      ],
      "name": "createElection",
      "outputs": [],
      "stateMutability": "nonpayable",
      "type": "function"
    },
    {
      "inputs": [
        {
          "internalType": "bytes32",
          "name": "_txHash",
          "type": "bytes32"
        }
      ],
      "name": "electionExists",
      "outputs": [
        {
          "internalType": "bool",
          "name": "",
          "type": "bool"
        }
      ],
      "stateMutability": "view",
      "type": "function"
    },
    {
      "inputs": [
        {
          "internalType": "bytes32",
          "name": "",
          "type": "bytes32"
        }
      ],
      "name": "elections",
      "outputs": [
        {
          "internalType": "string",
          "name": "name",
          "type": "string"
        },
        {
          "internalType": "uint256",
          "name": "voteCount",
          "type": "uint256"
        },
        {
          "internalType": "int256",
          "name": "voteBalance",
          "type": "int256"
        },
        {
          "internalType": "uint32",
          "name": "quorum",
          "type": "uint32"
        },
        {
          "internalType": "bytes32",
          "name": "merkleRoot",
          "type": "bytes32"
        }
      ],
      "stateMutability": "view",
      "type": "function"
    },
    {
      "inputs": [
        {
          "internalType": "bytes32",
          "name": "_txHash",
          "type": "bytes32"
        }
      ],
      "name": "getVoteInfo",
      "outputs": [
        {
          "internalType": "uint256",
          "name": "",
          "type": "uint256"
        },
        {
          "internalType": "int256",
          "name": "",
          "type": "int256"
        },
        {
          "internalType": "uint32",
          "name": "",
          "type": "uint32"
        }
      ],
      "stateMutability": "view",
      "type": "function"
    },
    {
      "inputs": [
        {
          "internalType": "bytes32",
          "name": "",
          "type": "bytes32"
        }
      ],
      "name": "txHashToElectionId",
      "outputs": [
        {
          "internalType": "bytes32",
          "name": "",
          "type": "bytes32"
        }
      ],
      "stateMutability": "view",
      "type": "function"
    },
    {
      "inputs": [
        {
          "internalType": "bytes",
          "name": "_proof",
          "type": "bytes"
        },
        {
          "internalType": "bytes32[]",
          "name": "_publicInputs",
          "type": "bytes32[]"
        }
      ],
      "name": "verifyProof",
      "outputs": [
        {
          "internalType": "bool",
          "name": "",
          "type": "bool"
        }
      ],
      "stateMutability": "view",
      "type": "function"
    },
    {
      "inputs": [
        {
          "internalType": "bytes",
          "name": "_proof",
          "type": "bytes"
        },
        {
          "internalType": "bytes32[]",
          "name": "_publicInputs",
          "type": "bytes32[]"
        }
      ],
      "name": "vote",
      "outputs": [],
      "stateMutability": "nonpayable",
      "type": "function"
    }
  ],
  "bytecode": {
    "object": "0x608060405234801561001057600080fd5b50610ac2806100206000396000f3fe608060405234801561001057600080fd5b50600436106100885760003560e01c80637349746b1161005b5780637349746b146101105780637663aca614610142578063bbcb7c7414610155578063fd7f643d1461016857600080fd5b806305ab39b71461008d57806309a5bbee146100ba5780631257fb7d146100e8578063509b0826146100fd575b600080fd5b6100a061009b36600461063e565b6101ce565b6040516100b1959493929190610657565b60405180910390f35b6100da6100c836600461063e565b60026020526000908152604090205481565b6040519081526020016100b1565b6100fb6100f6366004610716565b61028e565b005b6100fb61010b3660046107b0565b610464565b61013261011e36600461063e565b600090815260026020526040902054151590565b60405190151581526020016100b1565b61013261015036600461063e565b61053a565b610132610163366004610716565b6105b1565b6101ad61017636600461063e565b60008181526002602081815260408084205484529083905290912060018101549181015460039091015463ffffffff169193909250565b60408051938452602084019290925263ffffffff16908201526060016100b1565b6000602081905290815260409020805481906101e99061082a565b80601f01602080910402602001604051908101604052809291908181526020018280546102159061082a565b80156102625780601f1061023757610100808354040283529160200191610262565b820191906000526020600020905b81548152906001019060200180831161024557829003601f168201915b5050506001840154600285015460038601546004909601549495919490935063ffffffff909116915085565b600061029c858585856105b1565b9050806102f05760405162461bcd60e51b815260206004820152601860248201527f546869732070726f6f66206973206e6f742076616c69642e000000000000000060448201526064015b60405180910390fd5b60008060008585600181811061030857610308610864565b9050602002013581526020019081526020016000209050600160008585600381811061033657610336610864565b602090810292909201358352508101919091526040016000205460ff16156103aa5760405162461bcd60e51b815260206004820152602160248201527f546869732070726f6f662068617320616c7265616479206265656e20757365646044820152601760f91b60648201526084016102e7565b6001806000868660038181106103c2576103c2610864565b90506020020135815260200190815260200160002060006101000a81548160ff02191690831515021790555060008484600281811061040357610403610864565b9050602002013560001c1161042d5760028101805490600061042483610890565b91905055610444565b60028101805490600061043f836108ad565b919050555b50600181018054906000610457836108cc565b9190505550505050505050565b6040805160c06020601f8901819004028201810190925260a081018781526000928291908a908a908190850183828082843760009201829052509385525050506020808301829052604080840183905263ffffffff8a166060850152608090930186905286825260028152828220889055878252819052208151919250829181906104ef908261093f565b506020820151600182015560408201516002820155606082015160038201805463ffffffff191663ffffffff909216919091179055608090910151600490910155505b505050505050565b6000818152600260209081526040808320548084529183905282206001908101541080159190829061058b57506000818152602081905260409020600381015460019091015463ffffffff90911611155b91508180156105a95750600081815260208190526040812060020154135b949350505050565b604051633a94343960e21b8152600090819073e249c59f4c5a0dd8b0fe1610e25b4eca3a2fc74a9063ea50d0e4906105f39089908990899089906004016109ff565b602060405180830381865afa158015610610573d6000803e3d6000fd5b505050506040513d601f19601f820116820180604052508101906106349190610a63565b9695505050505050565b60006020828403121561065057600080fd5b5035919050565b60a08152600086518060a084015260005b81811015610685576020818a0181015160c0868401015201610668565b50600060c0828501015260c0601f19601f8301168401019150508560208301528460408301526106bd606083018563ffffffff169052565b8260808301529695505050505050565b60008083601f8401126106df57600080fd5b50813567ffffffffffffffff8111156106f757600080fd5b60208301915083602082850101111561070f57600080fd5b9250929050565b6000806000806040858703121561072c57600080fd5b843567ffffffffffffffff8082111561074457600080fd5b610750888389016106cd565b9096509450602087013591508082111561076957600080fd5b818701915087601f83011261077d57600080fd5b81358181111561078c57600080fd5b8860208260051b85010111156107a157600080fd5b95989497505060200194505050565b60008060008060008060a087890312156107c957600080fd5b863567ffffffffffffffff8111156107e057600080fd5b6107ec89828a016106cd565b909750955050602087013563ffffffff8116811461080957600080fd5b95989497509495604081013595506060810135946080909101359350915050565b600181811c9082168061083e57607f821691505b60208210810361085e57634e487b7160e01b600052602260045260246000fd5b50919050565b634e487b7160e01b600052603260045260246000fd5b634e487b7160e01b600052601160045260246000fd5b6000600160ff1b82016108a5576108a561087a565b506000190190565b60006001600160ff1b0182016108c5576108c561087a565b5060010190565b6000600182016108c5576108c561087a565b634e487b7160e01b600052604160045260246000fd5b601f82111561093a57600081815260208120601f850160051c8101602086101561091b5750805b601f850160051c820191505b8181101561053257828155600101610927565b505050565b815167ffffffffffffffff811115610959576109596108de565b61096d81610967845461082a565b846108f4565b602080601f8311600181146109a2576000841561098a5750858301515b600019600386901b1c1916600185901b178555610532565b600085815260208120601f198616915b828110156109d1578886015182559484019460019091019084016109b2565b50858210156109ef5787850151600019600388901b60f8161c191681555b5050505050600190811b01905550565b6040815283604082015283856060830137600060608583018101829052601f19601f8701168301838103820160208501529081018490526001600160fb1b03841115610a4a57600080fd5b8360051b80866080840137016080019695505050505050565b600060208284031215610a7557600080fd5b81518015158114610a8557600080fd5b939250505056fea2646970667358221220e61e06e94f8175fd7936f2b852ba3556f3fca000dd7218f5dbf13e37655c993764736f6c63430008100033",
    "linkReferences": {}
  },
  "methodIdentifiers": {
    "checkElectionSuccess(bytes32)": "7663aca6",
    "createElection(string,uint32,bytes32,bytes32,bytes32)": "509b0826",
    "electionExists(bytes32)": "7349746b",
    "elections(bytes32)": "05ab39b7",
    "getVoteInfo(bytes32)": "fd7f643d",
    "txHashToElectionId(bytes32)": "09a5bbee",
    "verifyProof(bytes,bytes32[])": "bbcb7c74",
    "vote(bytes,bytes32[])": "1257fb7d"
  },
  "id": 37
}